:10000000B83F0020899D0000119B0000979D0000D3
:10001000979D0000979D0000979D0000979D000010
:10002000000000000000000000000000979D00009C
:10003000979D000000000000979D0000979D000024
:100040002D810000E14B0000619000009D900000B8
:10005000ED45000017450000ED4600003F47000059
:10006000C54C0000AD73000095750000AD73000035
:10007000BD7400000000000000000000000000004F
:100080000000000000000000000000000000000070
:100090000000000000000000000000000000000060
:1000A0000000000000000000000000000000000050
:1000B0000000000000000000000000000000000040
:1000C0000000000000000000000000000000000030
:1000D0000000000000000000000000000000000020
:1000E0000000000000000000000000000000000010
:1000F0000000000000000000000000000000000000
:1001000000000000000000000000000000000000EF
:1001100000000000000000000000000000000000DF
:1001200000000000000000000000000000000000CF
:1001300000000000000000000000000000000000BF
:1001400000000000000000000000000000000000AF
:10015000000000000000000000000000000000009F
:10016000000000000000000000000000000000008F
:10017000000000000000000000000000000000007F
:10018000000000000000000000000000000000006F
:10019000000000000000000000000000000000005F
:1001A000000000000000000000000000000000004F
:1001B000000000000000000000000000000000003F
:1001C000FFFFFFFFFFFFFFFFFFFFFFFFFFFFFFFF3F
:1001D000FFFFFFFFFFFFFFFFFFFFFFFFFFFFFFFF2F
:1001E000FFFFFFFFFFFFFFFFFFFFFFFFFFFFFFFF1F
:1001F000FFFFFFFFFFFFFFFFFFFFFFFFFFFFFFFF0F
:1002000010B5054C237833B9044B13B1044800E012
:1002100000BF0123237010BD000800200000000073
:1002200064C1000008B5034B1BB10349034800E05B
:1002300000BF08BD000000000408002064C10000E9
:1002400080B500AF124B5B685B6804221A60104BEC
:100250005B685B680E225A600D4B5B685B68052229
:100260009A600B4B5B685B680522DA6009490A48B3
:1002700006F0CCFC0346094A1360084B1B68002BB0
:1002800004D0064B1B68002B00D000BE00BF80BD11
:1002900040B7000028B70000DC0B0020C00B002096
:1002A00080B483B000AF78607B689B88B3F5005F53
:1002B00072D0B3F5005F70DCB3F5805F6CD0B3F53E
:1002C000805F6ADCB3F5006F5ED0B3F5006F64DC6D
:1002D000B3F5806F5CD0B3F5806F5EDCB3F5007F63
:1002E0005AD0B3F5007F58DCB3F5807F54D0B3F516
:1002F000807F52DC202B45DC022B4EDB023B1E2B89
:100300004BD801A252F823F0990300009B03000090
:10031000990300009B0300009B0300009B03000067
:10032000990300009B0300009B0300009B03000057
:100330009B0300009B0300009B0300009B03000045
:10034000990300009B0300009B0300009B03000037
:100350009B0300009B0300009B0300009B03000025
:100360009B0300009B0300009B0300009B03000015
:100370009B0300009B0300009B0300009B03000005
:1003800099030000802B07E0074B01221A7004E05C
:10039000064B01221A7000E000BF00BF0C37BD46BB
:1003A0005DF8047B704700BF80010020B408002086
:1003B00080B500AF894B1B78002B00F09080874BF5
:1003C00000221A70864A0021864806F063FE864B9A
:1003D00093F82130002B40F0F680814B1B68013BE5
:1003E0000F2B7ED801A252F823F000BF2D0400008D
:1003F000450400004F04000059040000E30400001D
:1004000063040000AF040000E3040000E304000004
:10041000E30400006D040000E30400008304000016
:1004200099040000BF040000CF0400006E4B0122BD
:1004300083F826206D4B1B7843F00703DAB26B4B31
:100440001A704FE0684B002283F826204AE0664B82
:10045000012283F8212045E0634B022283F821200A
:1004600040E0614B032283F821203BE0604800F02C
:1004700069FA5E4B1B7843F00103DAB25B4B1A70EA
:1004800030E05B4800F0FAFA584B1B7843F0020367
:10049000DAB2564B1A7025E0554800F031FB534B49
:1004A0001B7843F00403DAB2504B1A701AE04F4B3A
:1004B0001B7843F00103DAB24C4B1A7012E04B4B3D
:1004C0001B7843F00203DAB2484B1A700AE0474B3C
:1004D0001B7843F00403DAB2444B1A7002E000BF09
:1004E00000E000BF404B93F82A30002B74D03E4B05
:1004F000002283F82A203F4B1B78002B6CD03A4B0C
:1005000093F82B300133DAB2374B83F82B20364B7C
:1005100093F82B30013B042B57D801A252F823F05B
:10052000350500005B05000081050000A7050000FF
:10053000B30500002D4B1B7803F00103002B46D0C0
:100540002C4B00221A7000F057F8284B1B7823F030
:100550000103DAB2254B1A7039E0244B1B7803F003
:100560000203002B35D0234B00221A7000F098F8BC
:100570001E4B1B7823F00203DAB21C4B1A7028E0E2
:100580001A4B1B7803F00403002B24D0194B0022D4
:100590001A7000F0DDF8154B1B7823F00403DAB273
:1005A000124B1A7017E0134B00221A7000F024F956
:1005B00012E0104B00221A7000F074F90A4B00226E
:1005C00083F82B2008E000BF06E000BF04E000BF76
:1005D00002E000BF00E000BF80BD00BFB408002003
:1005E00068080020DC0B0020B8080020B5080020B7
:1005F000740800208001002080B500AF1F4B072247
:100600001A601E4B00221A711C4B00225A711B4BA0
:1006100008229A71194B00229A60194B93F82020F6
:10062000164B1A73174BD3ED007ADFED170A002132
:10063000B0EE670A154800F015FC124B1B8907EE57
:10064000903AF8EE677ADFED120A0021B0EE670A01
:10065000104800F007FC0B4BD3ED017ADFED0A0ADE
:100660000021B0EE670A0C4800F0FCFB034A0021B1
:100670000A4806F097FC00BF80BD00BF1C080020A0
:10068000B80800203809002000004842290800204E
:100690000000C8422B0800202D080020DC0B0020A1
:1006A00080B500AF204B0F221A601F4B00221A7139
:1006B0001D4B00225A711C4B08229A711A4B0022C2
:1006C0009A601A4BD3ED007ADFED190A0021B0EEE3
:1006D000670A184800F0C6FB144BD3ED017ADFED32
:1006E000160A0021B0EE670A144800F0BBFB0F4B5E
:1006F000D3ED027ADFED0E0A0021B0EE670A104852
:1007000000F0B0FB094BD3ED037ADFED0E0A0021B8
:10071000B0EE670A0C4800F0A5FB034A00210B4825
:1007200006F040FC00BF80BD1C080020B808002077
:100730000000C8422808002000401C462A0800206B
:100740002C08002000007A442E080020DC0B00203A
:1007500080B500AF204B10221A601F4B00221A7187
:100760001D4B00225A711C4B08229A711A4B002211
:100770009A601A4BD3ED067ADFED190A0021B0EE2C
:10078000670A184800F06EFB144BD3ED077AF7EEBA
:10079000000A0021B0EE670A134800F063FB0F4B1C
:1007A000D3ED047ADFED0E0A0021B0EE670A0F48A0
:1007B00000F058FB094BD3ED057AF7EE000A002153
:1007C000B0EE670A0A4800F04DFB034A00210948D1
:1007D00006F0E8FB00BF80BD1C080020B808002020
:1007E0000000C842280800202A0800202C08002009
:1007F0002E080020DC0B002080B500AF204B11221A
:100800001A601F4B00221A711D4B00225A711C4B9B
:1008100008229A711A4B00229A601A4BD3ED0B7A78
:10082000DFED190A0021B0EE670A184800F01AFB44
:10083000144BD3ED0C7ADFED160A0021B0EE670AF7
:10084000144800F00FFB0F4BD3ED0F7ADFED0E0ACB
:100850000021B0EE670A104800F004FB094BD3ED0D
:100860000A7ADFED0B0A0021B0EE670A0B4800F0B0
:10087000F9FA034A00210A4806F094FB00BF80BD44
:100880001C080020380900200000484228080020E9
:100890000000C8422A0800202C0800202E08002052
:1008A000DC0B002080B500AF1F4B12221A601E4BDC
:1008B00000221A711C4B00225A711B4B08229A719C
:1008C000194B00229A60194BD3ED0D7AF7EE000A0E
:1008D0004FF40041B0EE670A154800F0C3FA134B1D
:1008E000D3ED117AF7EE000A0021B0EE670A114845
:1008F00000F0B8FA104B1A780B4B1A740E4B9B8809
:1009000007EE903AF8EE677AF7EE000A0021B0EEB3
:10091000670A0A4800F0A6FA034A0021084806F0D0
:1009200041FB00BF80BD00BF1C080020380900202B
:10093000280800202A080020A80900202D080020EF
:10094000DC0B002080B584B000AF78607B681B783A
:10095000022B10D0022B13DC002B02D0012B05D070
:100960000EE03C4B002283F820200AE0394B0122A4
:1009700083F8202005E0374B022283F8202000E096
:1009800000BF7B6801339FED340A0021184600F058
:1009900099FA87ED030AD7ED037A9FED307AF4EEEA
:1009A000C77AF1EE10FA0BD5D7ED037A9FED2C7ACA
:1009B000F4EEC77AF1EE10FA02DD2A4AFB68136002
:1009C0007B6803339FED280A0021184600F07AFA6D
:1009D00087ED030AD7ED037A9FED247AF4EEC77A08
:1009E000F1EE10FA11D5D7ED037A9FED217AF4EEEE
:1009F000C77AF1EE10FA08DDD7ED037AFCEEE77A5C
:100A000017EE903A9AB2174B1A817B6805339FED27
:100A1000120A0021184600F055FA87ED030AD7EDB7
:100A2000037A9FED147AF4EEC77AF1EE10FA00D44F
:100A30000CE0D7ED037A9FED107AF4EEC77AF1EE71
:100A400010FA00DC02E0074AFB68536000BF103771
:100A5000BD4680BDB80800200AD7A33C0000D243A1
:100A60000000AF43380900200AD7233C000082422F
:100A700000003442000084430000A04280B582B0F0
:100A800000AF78609FED1A0A0021786800F01AFA2A
:100A9000F0EE407A174BC3ED007A7B6802339FED8E
:100AA000160A0021184600F00DFAF0EE407A114BBC
:100AB000C3ED017A7B6804339FED0D0A00211846CF
:100AC00000F000FAF0EE407A0A4BC3ED027A7B6840
:100AD00006339FED0A0A0021184600F0F3F9F0EE04
:100AE000407A044BC3ED037A00BF0837BD4680BD92
:100AF0000AD7233CB808002017B7D1386F12833AC1
:100B000080B582B000AF78609FED1A0A0021786846
:100B100000F0D8F9F0EE407A174BC3ED067A7B6807
:100B20000233B7EE000A0021184600F0CBF9F0EED0
:100B3000407A114BC3ED077A7B6804339FED0D0AB1
:100B40000021184600F0BEF9F0EE407A0A4BC3EDE2
:100B5000047A7B680633B7EE000A0021184600F0DD
:100B6000B1F9F0EE407A044BC3ED057A00BF0837C7
:100B7000BD4680BD0AD7233CB808002080B500AF31
:100B8000484B002283F82120474B05221A70474B1F
:100B900055221A70454BF0225A70444B00229A702D
:100BA000424B0722DA7000F09DF8414B55221A7033
:100BB0003F4BF0225A703E4B00229A703C4B102261
:100BC000DA70384BD3ED007ADFED3A0A0021B0EE4F
:100BD000670A394800F046F9324BD3ED017ADFED70
:100BE000370A0021B0EE670A354800F03BF92D4B7B
:100BF000D3ED027ADFED2F0A0021B0EE670A31480B
:100C000000F030F9274BD3ED037ADFED2F0A0021F6
:100C1000B0EE670A2D4800F025F9224BD3ED067A95
:100C2000DFED240A0021B0EE670A294800F01AF926
:100C30001C4BD3ED077AF7EE000A0021B0EE670AED
:100C4000244800F00FF9174BD3ED047ADFED190AB1
:100C50000021B0EE670A204800F004F9114BD3EDF3
:100C6000057AF7EE000A0021B0EE670A1B4800F093
:100C7000F9F815210E4800F05FF903461A460C4BAF
:100C80001A71174B55221A70154BF0225A70144BDB
:100C900000229A70124B0F22DA7000F069F800BF40
:100CA00080BD00BFB8080020E40800200009002033
:100CB0000C0900200000C8421109002000401C4619
:100CC000130900201509002000007A4417090020AC
:100CD000190900201B0900201D0900201F09002000
:100CE0002409002080B500AF194B93F82020194B40
:100CF0005A71194BD3ED007ADFED180A0021B0EEDE
:100D0000670A174800F0AEF8134B1B8907EE903ABC
:100D1000F8EE677ADFED130A0021B0EE670A124899
:100D200000F0A0F80C4BD3ED017ADFED0C0A0021A6
:100D3000B0EE670A0D4800F095F80C21054800F068
:100D4000FBF803461A46034B1A7100BF80BD00BF73
:100D5000B80800200009002038090020000048429F
:100D6000060900200000C842080900200A090020E6
:100D700080B500AF2F4BD3ED0B7ADFED2F0A0021AA
:100D8000B0EE670A2D4800F06DF82A4BD3ED0C7ACF
:100D9000DFED2B0A0021B0EE670A2A4800F062F866
:100DA000244BD3ED0F7ADFED240A0021B0EE670A61
:100DB000254800F057F81F4BD3ED0A7ADFED200AE3
:100DC0000021B0EE670A214800F04CF8194BD3ED32
:100DD0000D7AF7EE000A4FF40041B0EE670A1C48A6
:100DE00000F040F8134BD3ED117AF7EE000A002122
:100DF000B0EE670A174800F035F8174B1A78174B12
:100E00005A74154B9B8807EE903AF8EE677AF7EE26
:100E1000000A0021B0EE670A114800F023F81421FF
:100E20000E4800F089F803461A460C4B1A7100BFB1
:100E300080BD00BF38090020000048422909002079
:100E40000000C8422B0900202D0900202F09002096
:100E50003109002033090020A809002024090020BE
:100E60003609002080B487B000AFF86087ED020A31
:100E70000B46C7ED000AFB80FB8807EE903AB8EE00
:100E8000E77AD7ED027A37EE277AD7ED007A67EE68
:100E9000277AFCEEE77A17EE903AFB82FB8A1B0A70
:100EA0009BB2DAB2FB681A70FB680133FB60FB8A05
:100EB000DAB2FB681A7000BF1C37BD465DF8047BD0
:100EC0007047FFFF80B487B000AFF8600B4687ED36
:100ED000010A7B81FB681B7807EE903AF8EE677A8F
:100EE0009FED147A67EE877AC7ED057AFB680133C8
:100EF000FB60FB681B7807EE903AB8EEE77AD7ED17
:100F0000057A37EE277AD7ED017A27EE277A7B89A3
:100F100007EE903AF8EEE77A77EE677AC7ED057A52
:100F20007B6907EE903AB0EE670A1C37BD465DF864
:100F3000047B70470000804380B485B000AF7860C8
:100F40000B467B800023FB730023BB810CE0BB8935
:100F5000042B06D0BB897A6813441A78FB7B1344B0
:100F6000FB73BB890133BB81BA897B889A42EED37C
:100F7000FB7B18461437BD465DF8047B704780B58F
:100F800084B000AF78600B467B800023FB737B88C6
:100F900019467868FFF7D0FF0346BB737B680433BC
:100FA0001B78BA7B9A4201D10123FB73FB7B184665
:100FB0001037BD4680BDFFFF80B500AF894B1B7861
:100FC000002B00F0F080884B00229A84874B1B781E
:100FD0001A468749874802F0E3FF824B00221A70C5
:100FE000814B93F82130002B40F0F980824B1B7825
:100FF000002B00F0D880804B00221A707B4B1B78AE
:101000009BB219467A48FFF7BAFF0346002B00F05F
:10101000C180774B5B78013B0B2B00F2B18001A2C2
:1010200052F823F0551000006F10000083100000EC
:1010300097100000AB1000006D110000BB10000005
:10104000CB100000D7100000F71000001D110000A9
:101050004111000005226949664802F0D9FF624B40
:10106000012283F82220604B00229A849BE0052213
:101070006249604802F0CCFF5B4B002283F82220DB
:1010800091E005225D495B4802F0C2FF564B012208
:1010900083F8212087E005225849564802F0B8FF1E
:1010A000514B022283F821207DE0FFF761FE1422DC
:1010B0005349504802F0ACFF75E0FFF713FE0C22D5
:1010C00050494C4802F0A4FF6DE015224E494948B2
:1010D00002F09EFF67E0454B06221A70434B1B78D7
:1010E0001A464349434802F05BFF05224349414801
:1010F00002F08EFF57E03E4B5B790533DAB23B4B93
:101100001A703A4B1B781A4639493A4802F048FFA0
:1011100005223A49374802F07BFF44E000F078F8B6
:10112000324B05221A70314B1B781A463049314830
:1011300002F036FF052231492E4802F069FF32E005
:1011400000F004F9294B05221A70284B1B781A4627
:101150002749284802F024FF05222849254802F0A3
:1011600057FF214B042283F821201CE0052223494C
:10117000204802F04DFF1C4B032283F8212012E08F
:10118000052222491B4802F043FF174B012283F836
:10119000232008E005221D49164802F039FF124BB2
:1011A000012283F82320144B1B78002B04D00E4B14
:1011B00093F82330002B05D10B4B9B8C41F26F72BF
:1011C00093420DD90B4802F071FE02F003FC064B6E
:1011D000002283F82320044B00229A8400E000BF01
:1011E00080BD00BFC40B0020B8080020E408002028
:1011F000E8080020140C0020E806002084010020EC
:1012000024090020000900200C0900208C01002086
:1012100080B582B000AF3F4B5B79022B10D0022B20
:1012200013DC002B02D0012B05D00EE03A4B00223C
:1012300083F820200AE0384B012283F8202005E0C3
:10124000354B022283F8202000E000BF9FED330AD7
:1012500000213348FFF736FE87ED010AD7ED017A0A
:101260009FED307AF4EEC77AF1EE10FA0BD5D7ED98
:10127000017A9FED2D7AF4EEC77AF1EE10FA02DDD5
:101280002A4A7B6813609FED2A0A00212948FFF74C
:1012900019FE87ED010AD7ED017A9FED277AF4EE6A
:1012A000C77AF1EE10FA11D5D7ED017A9FED237AC6
:1012B000F4EEC77AF1EE10FA08DDD7ED017AFCEE14
:1012C000E77A17EE903A9AB2184B1A819FED130AFB
:1012D00000211B48FFF7F6FD87ED010AD7ED017AE3
:1012E0009FED187AF4EEC77AF1EE10FA00D40CE014
:1012F000D7ED017A9FED147AF4EEC77AF1EE10FA89
:1013000000DC02E0094A7B68536000BF0837BD4635
:1013100080BD00BFE8080020B80800200AD7A33C21
:10132000EE0800200000D2430000AF43380900203F
:101330000AD7233CF008002000008242000034421B
:10134000F2080020000084430000A04280B500AFF6
:101350009FED5C0A00215C48FFF7B4FDF0EE407A97
:101360005A4BC3ED007A9FED5A0A00215948FFF706
:10137000A9FDF0EE407A554BC3ED017A9FED510A7D
:1013800000215548FFF79EFDF0EE407A4F4BC3ED2C
:10139000027A9FED520A00215148FFF793FDF0EECB
:1013A000407A4A4BC3ED037A9FED460A00214D482F
:1013B000FFF788FDF0EE407A444BC3ED067AB7EEB6
:1013C000000A00214848FFF77DFDF0EE407A3F4BD0
:1013D000C3ED077A9FED3B0A00214448FFF772FDF9
:1013E000F0EE407A394BC3ED047AB7EE000A0021E3
:1013F0003F48FFF767FDF0EE407A344BC3ED057AC6
:10140000324BD3ED007ADFED3B0A0021B0EE670AE4
:101410003948FFF727FD2D4BD3ED017ADFED370A71
:101420000021B0EE670A3648FFF71CFD274BD3EDCD
:10143000027ADFED300A0021B0EE670A3148FFF78B
:1014400011FD224BD3ED037ADFED2F0A0021B0EE20
:10145000670A2E48FFF706FD1C4BD3ED067ADFED39
:10146000250A0021B0EE670A2948FFF7FBFC174B5D
:10147000D3ED077AF7EE000A0021B0EE670A25489F
:10148000FFF7F0FC114BD3ED047ADFED1A0A0021CF
:10149000B0EE670A2048FFF7E5FC0C4BD3ED057A68
:1014A000F7EE000A0021B0EE670A1C48FFF7DAFCED
:1014B00015211B48FFF740FD03461A46184B1A71C9
:1014C00000BF80BD0AD7233CED080020B8080020EB
:1014D00017B7D138EF080020F10800206F12833AC7
:1014E000F3080020F5080020F7080020F908002084
:1014F000FB0800200000C8421109002000401C46E3
:10150000130900201509002000007A441709002063
:10151000190900201B0900201D0900201F090020B7
:101520000C09002080B500AF624B00225A70614B5D
:1015300000221A705F4B00229A805F4B32221A8180
:101540005D4B5E4A1A605C4B5D4A5A605A4B4FF0E5
:101550000002DA60584B4FF000021A61564B4FF010
:1015600000025A61544B4FF000025A62524B4FF046
:1015700000029A61504B4FF000021A624E4B4FF03E
:101580000002DA614C4B4FF000029A624A4B4FF076
:101590000002DA62484B4FF000021A63464B4FF0EC
:1015A00000025A63474B01221A70464B464A9A6121
:1015B000444B454ADA61434B404A1A61434B01228E
:1015C0001A70424B424A9A61404B414ADA613F4BA2
:1015D000404A1A613D4B4FF000025A613E4B3F4A70
:1015E0001A613D4B3E4A5A61334BDB6B3A4A936278
:1015F000314BD3ED0F7AF1EE677A374BC3ED0B7AAF
:10160000384B4FF07E521A61364B374A5A61354B90
:10161000364A9A62334B364ADA62364B2F4A1A60A0
:10162000344B354A5A60244BDB6B324A9360224B71
:10163000D3ED0F7AF1EE677A2E4BC3ED037A2F4B81
:10164000214A1A602D4B2E4A5A602C4B274A9A6029
:101650002A4B274ADA602B48DFED2B0A9FED2B0A35
:1016600000F052F91C4B1B69294A13601A4B5B6945
:10167000274A53601B4B1B69254A9360194B5B69D2
:10168000234AD3601B4B1B68214A9361194B5B684B
:101690001F4AD361194B1B681D4A1361174B5B68C6
:1016A0001B4A5361034B5A78194B83F8202000BF23
:1016B00080BD00BFA8090020380900200000C843F1
:1016C00000005C43F00A00200AD7233C180B0020DE
:1016D0009A99993E222BA643F80900200000204148
:1016E000CDCC4C3F340A0020A69B443B0000B841BF
:1016F0000000B8C1700A002000404E47B00A002028
:101700000000A041400B0020DD7E3C4363141D44DB
:10171000B808002080B500AF6D4B4FF000025A6151
:101720006C4B4FF00002DA606B4B4FF00002DA6056
:10173000674B4FF000021A62684B93F82020684B09
:101740005A70674B00229A70654B0022DA70654B25
:101750004FF000021A62634B4FF00002DA60624BF6
:101760004FF000021A62604B4FF00002DA605F4BEC
:101770004FF000021A625D4B4FF00002DA605C4BE2
:101780004FF000029A615A4B4FF00002DA61584B59
:101790004FF000021A62564B4FF000021A60544B91
:1017A0004FF000025A60524B4FF000029A60504BCB
:1017B0004FF00002DA604E4B4FF000021A614C4BC2
:1017C0004FF000025A614B4B4FF000021A60494B38
:1017D0004FF000025A60474B4FF000029A60454BB1
:1017E0004FF00002DA60434B4FF000021A61414BA8
:1017F0004FF000025A61404B4FF000021A613E4B1D
:101800004FF000025A613C4B4FF000029A613A4B94
:101810004FF00002DA61384B4FF000021A62364B8B
:101820004FF000025A62354B4FF000021A61334B01
:101830004FF000025A61314B4FF000029A612F4B7A
:101840004FF00002DA612D4B4FF000021A622B4B71
:101850004FF000025A62214B1B68224A13611F4B52
:101860005B68204A53611D4B9B681F4A13611B4BE9
:10187000DB681D4A5361194B9B69204A1360174B63
:10188000DB691E4A5360154B1B691B4A1360134BDF
:101890005B69194A53600E4B1B8907EE903AF8EECC
:1018A000677A1548F0EE670A9FED150A08F084FB89
:1018B000074B1B8907EE903AF8EE677A0F48F0EE77
:1018C000670A9FED100A08F077FB00BF80BD00BFDC
:1018D00038090020F00A0020180B0020B80800206A
:1018E000A8090020F8090020340A002094010020F3
:1018F000B0090020400B0020B00A0020700A002030
:1019000017B7D13832337E3780B485B000AF87ED5A
:10191000030AC7ED020A7860D7ED027AB1EE007AC9
:1019200067EE877A9FED4E7A67EE877AB1EE007A9E
:1019300037EE877AD7ED037ADFED496A67EEA66A5C
:10194000D7ED037A66EEA77ADFED456A67EEA67AF1
:1019500077EE277A7B68C3ED067AD7ED037A77EEC8
:10196000A77A9FED3F7A27EE877AD7ED037A67EE65
:10197000277A9FED3B7A67EE877AB2EE007A77EEB0
:10198000C76A7B6893ED067AC6EE877A7B68C3EDFB
:10199000077AD7ED037A9FED327A27EE877AD7ED73
:1019A000037A67EE277A9FED2E7A67EE877AB1EE9B
:1019B000007A37EE877AD7ED027AF1EE006A67EEA9
:1019C000A67ADFED276A67EEA67A77EE676A7B680C
:1019D00093ED067AC6EE877A7B68C3ED087AD7ED79
:1019E000037A9FED1F7A27EE877AD7ED037A67EEA9
:1019F000277A9FED1B7A67EE877AB1EE007A77EE51
:101A0000876A7B6893ED067AC6EE877A7B68C3EDBA
:101A1000097A7B68DA697B689A627B685A6A7B68B4
:101A2000DA627B684FF000021A607B684FF00002B8
:101A30005A607B684FF000029A607B684FF00002AA
:101A4000DA607B684FF000021A617B684FF0000299
:101A50005A6100BF1437BD465DF8047B704700BF74
:101A600017B7D13880B483B000AF78607B6893ED4E
:101A7000037A7B68D3ED097A27EE277A7B68D3ED6A
:101A8000046A7B68D3ED0A7A66EEA77A37EE277A86
:101A90007B68D3ED056A7B68D3ED0B7A66EEA77A97
:101AA00037EE277A7B68D3ED016A7B68D3ED077A3E
:101AB00066EEA77A37EE677A7B68D3ED026A7B68B9
:101AC000D3ED087A66EEA77A77EE677A7B68C3ED86
:101AD000007A7B685A687B689A607B681A687B68C2
:101AE0005A607B681A697B685A617B68DA687B6830
:101AF0001A617B681B6807EE903AB0EE670A0C37F4
:101B0000BD465DF8047B704780B483B000AF786059
:101B10007B681B78002B00F085807B6893ED017A51
:101B20007B68D3ED037A77EE677A574BC3ED007A83
:101B30007B68D3ED037AF5EEC07AF1EE10FA07DB9D
:101B4000514BD3ED007AF5EEC07AF1EE10FA0FDCCE
:101B50007B68D3ED037AF5EEC07AF1EE10FA0CD57E
:101B6000494BD3ED007AF5EEC07AF1EE10FA04D5C8
:101B70007B689B69454A136023E07B68D3ED037A59
:101B8000F5EEC07AF1EE10FA07D53F4BD3ED007AAF
:101B9000F5EEC07AF1EE10FA0FDC7B68D3ED037A34
:101BA000F5EEC07AF1EE10FA0BDB374BD3ED007A8D
:101BB000F5EEC07AF1EE10FA03D57B68DB69334AA3
:101BC0001360314B93ED007A304BD3ED007AB4EED5
:101BD000E77AF1EE10FA04DD2C4B1B682A4A1360F9
:101BE00014E02A4BD3ED007AB1EE677A264BD3EDA1
:101BF000007AB4EEE77AF1EE10FA07DD234BD3ED6D
:101C0000007AF1EE677A204BC3ED007A7B6893EDA2
:101C1000037A1D4BD3ED007A77EE277A1C4BC3ED88
:101C2000007A03E07B681B6A194A13607B6893EDB6
:101C3000047A174BD3ED007AB4EEE77AF1EE10FA9E
:101C400004D57B681A697B689A6013E07B6893ED22
:101C5000057A0F4BD3ED007AB4EEE77AF1EE10FA85
:101C600004DD7B685A697B689A6003E0084B1A6858
:101C70007B689A607B689A687B68DA6000BF0C3783
:101C8000BD465DF8047B7047780B00207C0B00207C
:101C9000800B002080B52DED028B84B000AF87ED66
:101CA000010A2D4B1B8907EE903AF8EEE77A9FED7B
:101CB0002B7A67EE877A9FED2A7A27EE877A264B72
:101CC000D3ED087A77EE277A234BC3ED087A224BBF
:101CD000D3ED087A9FED217AF4EEC77AF1EE10FA8F
:101CE0000ADD1D4BD3ED087A9FED1C7A77EEC77A9B
:101CF000194BC3ED087A11E0174BD3ED087AF5EED6
:101D0000C07AF1EE10FA09D5134BD3ED087A9FEDA6
:101D1000137A77EE877A104BC3ED087AD7ED017A04
:101D20009FED107A27EE878A0B4BD3ED087AB0EE41
:101D3000670A01F0FBFDF0EE407A68EE277AC7ED06
:101D4000037AFB6807EE903AB0EE670A1037BD469B
:101D5000BDEC028B80BD00BF38090020DB0FC940FD
:101D600017B7D138F4FDB43F80B52DED028B82B0AA
:101D700000AF374B5B78022B41D0364BD3ED0B7A5B
:101D8000B7EE087A67EE877A334BC3ED057A314BAD
:101D90001B68314A53603048FFF7B6FE2E4B9B68F4
:101DA0003B602C4BDB6B2D4AD3602C48FFF75AFE6F
:101DB000F0EE407A274BC3ED067A294A3B68136060
:101DC000244B9B69264A5360254808F081F8244B30
:101DD0005B6B204A13611F4BD3ED047AB1EE678A27
:101DE0001C4BD3ED037AB0EE670A01F0BFFDF0EEB5
:101DF000407A68EE277A174BC3ED057A21E0154B40
:101E00005B68184A53601748FFF77EFE154B9B68C6
:101E10007B6097ED010AFFF73DFFF0EE407A0D4B36
:101E2000C3ED077A0B4B93ED077A0A4BD3ED0E7A8D
:101E300077EE677A0C4BC3ED077A0C490A4808F035
:101E4000B3F900BF0837BD46BDEC028B80BD00BFB3
:101E5000A809002038090020F00A0020400B0020CB
:101E6000340A0020180B0020B00A00204C09002082
:101E700080B500AF274B5B78022B2ED0264B5B69D9
:101E8000264A1360244B1B6C244A5360224B93ED6B
:101E90000F7A214BD3ED0E7A77EE677A1F4BC3EDA5
:101EA0000A7A1D4BD3ED0F7AB1EE677A1A4BD3ED58
:101EB0000E7A77EE677A194BC3ED0B7A174808F064
:101EC00007F8164B93ED0D7A134BD3ED0E7A77EEA0
:101ED000277A114BC3ED097A1AE00F4B93ED057A7F
:101EE0000D4BD3ED107A77EE677A0D4BC3ED077A81
:101EF000094BDB6B0A4A9360074BD3ED0F7AF1EE87
:101F0000677A074BC3ED037A0649054808F04CF998
:101F100000BF80BDA809002038090020F809002072
:101F2000700A00205C09002080B582B002AF0F4B20
:101F30005B78022B15D00E4B9B6B0E4A93610C4BBA
:101F40001B8907EE903AF8EE677A0B4B00930B4B28
:101F50000B4AF0EE670A0B4906489FED0B0A08F0A2
:101F600043FAFFF701FF00BFBD4680BDA80900206E
:101F700038090020B0090020600900206409002011
:101F8000440900209401002017B7D13880B500AF74
:101F9000FFF76EFF00F002F800BF80BD80B582B091
:101FA00000AF0F4BD3ED097A0D4B93ED0F7A394605
:101FB0003B1D0C4AF0EE470AB0EE670A184608F0DF
:101FC00071F9D7ED017A97ED007AF0EE470AB0EE9D
:101FD000670A00F009F800BF0837BD4680BD00BFA2
:101FE00038090020840B002080B584B000AF87ED55
:101FF000010AC7ED000A3B4B1B6807EE903AB8EEAA
:10200000677AF7EE006AD7ED017A76EEE77A67EE47
:10201000277AFCEEE77A17EE903ABB60314B1B68EB
:10202000314A12681946B86800F076F8B8602F4A4D
:10203000BB68D3652E4ABB68D3652E4ABB68D3659F
:10204000D7ED007AB7EE007AF4EEC77AF1EE10FA27
:1020500002DD0023FB600CE0D7ED007AF5EEC07ADC
:10206000F1EE10FA05D5244B1A68244B1B68134473
:10207000FB60234AFB68D365224AFB68D365224A8A
:10208000FB68D365214B9B78002B27D1204A5388CE
:102090006FF30C3353801F4B90229A60134B002236
:1020A0009A64174B00229A64104A536B43F480736E
:1020B00053630E4A536B43F080735363104A536B60
:1020C00043F4807353630E4A536B43F0807353633E
:1020D000104B90225A600D4B01229A7000BF1037AE
:1020E000BD4680BDDC060020E406002000941640BA
:1020F0000095164000961640D8060020E006002005
:10210000009716400098164000991640A809002034
:10211000C0F101400090164080B485B000AFF86077
:10212000B9607A607B685B08FA689A4202D2002341
:10213000FB601CE0FA687B689A4202D27B68FB6015
:1021400015E0BA687B68D31AFA689A420FD37B68A5
:102150005B08BA68D31AFA689A4204D2BA687B68F4
:10216000D31AFB6003E0BA687B681344FB60FB682A
:1021700018461437BD465DF8047B704780B483B0C1
:1021800000AF7860204B9B88C3F3C013DBB2002BF9
:1021900033D11D4B9B88C3F34013DBB2002B04D11A
:1021A0001A4A137943F001031371194B9B88C3F347
:1021B0004003DBB2002B04D1144A137943F004032B
:1021C0001371114B9B88C3F34013DBB2012B10D169
:1021D0000F4B9B88C3F34003DBB2012B09D10B4AA1
:1021E000137943F001031371084A137943F0040390
:1021F0001371084B0222C3F8802000BF0C37BD4684
:102200005DF8047B704700BF80F10140A809002001
:1022100060F1014000E100E080B500AF1B4BD3ED61
:10222000107AB3EE0E7AF4EEC77AF1EE10FA09DC0A
:10223000164BD3ED107ABBEE0E7AF4EEC77AF1EEC0
:1022400010FA04D5124A137943F0020313710F4BAD
:10225000D3ED0F7A9FED0F7AF4EEC77AF1EE10FA14
:1022600004DD0B4A137943F008031371084B9B8874
:10227000002B08D0064B1B78022B01D100F0E6F9A9
:10228000034B03221A7000BF80BD00BF3809002035
:10229000A80900200000D24380B500AF904B5B78C6
:1022A000022B00F0B580022B00F3C780002B02D078
:1022B000012B57D0C1E08A4B1B78022B40F0BF8026
:1022C000884B93ED0F7A874BD3ED0B7ADFED866A5F
:1022D00067EEA67AB4EEE77AF1EE10FA04D5804AFA
:1022E000137943F0100313717E4BD3ED0A7A9FEDFF
:1022F0007F7AF4EEC77AF1EE10FA09DC794BD3ED70
:102300000A7A9FED7B7AF4EEC77AF1EE10FA04D5E3
:10231000734A137943F040031371724B93ED0B7AB8
:10232000704BB3F86E3007EE903AF8EEE77AB4EE01
:10233000E77AF1EE10FA0FDC6A4B93ED0B7A694BFA
:10234000B3F86C3007EE903AF8EEE77AB4EEE77A3D
:10235000F1EE10FA00D472E0614A137943F02003E1
:1023600013716CE05E4B1B78022B6AD15D4B93EDD1
:102370000F7A5C4BD3ED0B7ADFED5B6A67EEA67AE2
:10238000B4EEE77AF1EE10FA04D5554A137943F02A
:1023900010031371534BD3ED0A7A9FED547AF4EE88
:1023A000C77AF1EE10FA09DC4E4BD3ED0A7A9FEDB5
:1023B000507AF4EEC77AF1EE10FA04D5484A137950
:1023C00043F040031371474B93ED0B7A454BB3F841
:1023D0006E3007EE903AF8EEE77AB4EEE77AF1EE77
:1023E00010FA0FDC3F4B93ED0B7A3E4BB3F86C3099
:1023F00007EE903AF8EEE77AB4EEE77AF1EE10FAEB
:1024000000D41EE0364A137943F02003137118E01C
:10241000334B1B78022B16D1324BD3ED0F7A9FED45
:10242000357AF4EEC77AF1EE10FA00D40BE02C4ABC
:10243000137943F01003137105E000BF04E000BFFF
:1024400002E000BF00E000BF264BD3ED117A9FED04
:102450002A7AF4EEC77AF1EE10FA04DD204A5379B5
:1024600043F0010353711F4BD3ED0D7A9FED237A97
:10247000F4EEC77AF1EE10FA18DD214B1B88013318
:102480009AB21F4B1A801E4B1B8807EE903AF8EE4B
:10249000E77A9FED1C7AF4EEC77AF1EE10FA08DDC8
:1024A0000F4A537943F00203537102E0144B0022A8
:1024B0001A800B4B9B88002B09D0094B1B78022BF1
:1024C00001D100F0C3F8064B03221A7006E0044B5A
:1024D0001B78032B02D1024B00221A7000BF80BD73
:1024E000A8090020380900206666A63F0000824245
:1024F000000034420000AF430000704200007A4503
:10250000880B00200060EA4680B400AF434BDB6BD1
:10251000C3F30063DBB2012B0ED1414B9B88C3F3A5
:10252000C013DBB2012B07D13E4A13686FF30003DF
:1025300013603D4B02221A60394B9B88C3F3401352
:10254000DBB2012B04D1394A13796FF30003137105
:10255000374B9B88C3F34003DBB2012B04D1334AD2
:1025600013796FF382031371324BD3ED107AB3EE0C
:102570000E7AF4EEC77AF1EE10FA0ED82D4BD3EDA9
:10258000107ABBEE0E7AF4EEC77AF1EE10FA04DBA5
:10259000264A13796FF341031371264BD3ED0F7A5B
:1025A0009FED257AF4EEC77AF1EE10FA04D51F4AB2
:1025B00013796FF3C30313711C4A13796FF3041378
:1025C00013711C4BD3ED117A9FED1C7AF4EEC77A90
:1025D000F1EE10FA04D5154A53796FF300035371E5
:1025E000124A53796FF341035371104A13796FF311
:1025F000861313710D4A13796FF3451313710B4A48
:1026000013796FF3C7131371084A53796FF3820379
:10261000537100BFBD465DF8047B704700941640BF
:1026200080F1014000A0084000E100E0A80900207E
:1026300060F10140380900200080C04300005C4286
:1026400080B500AFFFF766F800BF80BD80B400AF73
:10265000384B90229A60384A536B6FF308235363C8
:10266000354A536B6FF318635363344A536B6FF3FC
:1026700008235363314A536B6FF318635363304A33
:10268000538843F4805353802B4A536B092161F3E1
:10269000040353632B4A536B092161F3040353630F
:1026A000294A536B092161F304035363224A536B94
:1026B000062161F314435363224A536B062161F3ED
:1026C00014435363204A536B062161F3144353634D
:1026D0001A4A536B092161F3040353631B4A536B7A
:1026E000092161F304035363194A536B092161F310
:1026F00004035363114A536B062161F3144353637C
:10270000124A536B062161F314435363104A536B0F
:10271000062161F314435363064B90225A60084A22
:1027200053886FF34923538000BFBD465DF8047B97
:10273000704700BF00901640009416400097164066
:10274000C0F10140009516400096164000981640D2
:102750000099164080B500AF464B93F82130013BFD
:10276000032B31D801A252F823F000BF7D270000CF
:1027700091270000A5270000C12700003E4B1B78D1
:10278000002B23D1FFF75CFF3B4B01221A701DE0A9
:10279000394B1B78032B1BD0FFF758FF364B002219
:1027A0001A7015E0344B1B78032B13D1FFF7ACFEE6
:1027B000314B9B88002B0DD12F4B00221A7009E062
:1027C0002D4B1B78002B06E000BF04E000BF02E0A9
:1027D00000BF00E000BF274B002283F82120274BD9
:1027E0001B8841F28732934205D9254B01221A708A
:1027F000224B00221A80234B1B68234A1360214B73
:1028000000221A60204B1B68102B02D0202B1BD0FB
:102810002BE01B4B1B78002B24D0174B1B78002B75
:1028200005D1FFF70DFF144B01221A7008E0124B7F
:102830001B78032B04D0FFF709FF0F4B00221A70FF
:102840000F4B00221A700DE00B4B1B78032B0BD1A2
:10285000FFF75AFE084B9B88002B05D1064B002240
:102860001A7001E000BF00E000BF074B00221A60B1
:1028700000BF80BDB8080020A8090020740B00200C
:10288000D0010020C80B0020700B002080B500AFE5
:102890000B4A538843F48073538001F005F9FEF727
:1028A00041FEFEF76BF901F03BF9FEF785FBFDF702
:1028B0007FFDFFF74FFF00F01FFD00F0BFFCF4E7C6
:1028C00080F1014080B582B000AF0346FB71FB7917
:1028D000022B05D1044B5B681946044802F09EFAAE
:1028E00000BF0837BD4680BDE0B60000D40B002015
:1028F00080B582B000AF78607B68002B00F0DF808D
:102900007B689B78002B40F0DA807B681B8B012B67
:1029100040F0AA806C4BDB68DB696C4A00216C4894
:10292000984703466B4A1360674BDB68DB696A4A6A
:102930000121674898470346664A1360624BDB688B
:10294000DB69664A0221624898470346614A136080
:10295000634B9B6D1A46634B1B68D31A1A46604B38
:102960009A655F4B1B6D07EE903AF8EE677A9FED24
:102970005E7A67EE877A5A4BC3ED187A584BD3EDDF
:10298000187A9FED5A7A77EEC77A9FED597A67EEFB
:10299000877A534BC3ED0E7A514B9B6D07EE903AFD
:1029A000F8EE677A9FED507A67EE877A4C4BC3ED6D
:1029B0001A7A4B4BD3ED1A7A9FED4E7A77EEC77A9F
:1029C0009FED4D7A67EE877A454BC3ED107A444B05
:1029D0005B6D07EE903AF8EE677A9FED437A67EE0B
:1029E000877A3F4BC3ED197A3D4BD3ED197A9FEDB2
:1029F000437A67EE877A3A4BC3ED0F7A384BD3EDC3
:102A00000E7A9FED3F7A27EE877A354BD3ED127A17
:102A1000DFED3C6A67EEA67A77EE277A304BC3ED9E
:102A20000E7A2F4B9B6B2E4A93642D4BD3ED0F7A6E
:102A30009FED337A27EE877A294BD3ED137ADFEDBA
:102A4000316A67EEA67A77EE277A254BC3ED0F7AC7
:102A5000234BDB6B224AD364FFF7DEFB2A4B1B7848
:102A6000022B01D1FFF792FA7B681B8B022B26D138
:102A7000154BDB68DB69254A032115489847034657
:102A8000144A1360164BDB6D23F00043144AD365E0
:102A9000134BDB6DA3F561731D4AA2FB0323DB0817
:102AA0009BB21C4A9B0013441B680D4A5364FFF7FA
:102AB000F3FB154B1B78022B01D1FFF735FA00BF52
:102AC0000837BD4680BD00BF04BD00008809002056
:102AD0005C0D0020C00B0020900900208C09002014
:102AE00038090020940B00205940533A3333D33F28
:102AF00000809B43CB59CE3F081FF84185AB1D4357
:102B000046B6733FA69B443DA809002094090020C7
:102B1000CDCCCCCCD401002080B588B002AF786099
:102B2000B94B5B78022B00F0E181B84B1B7BC3F300
:102B30000003DBB2002B4FD1B54B1B78012B59D1D1
:102B4000B44B1B8807EE903AF8EEE77A9FEDB27A25
:102B500027EE877AF7EE006AC6EE877AAF4BC3EDB1
:102B6000007AAF4B93ED007AAA4B1B8807EE903AA0
:102B7000F8EEE77AC7EE276A16EE900A08F012F828
:102B800002460B4643EC102B08F0D0F853EC102B08
:102B90001046194608F05EF80346A24A1363A24B9A
:102BA000D3ED006A9B4B1B8807EE903AB8EEE77AAC
:102BB000C6EE877A9B4BC3ED0D7A994B4FF000021E
:102BC0001A60994B4FF000021A60924B00221A8053
:102BD0008F4B00221A700DE08D4B1B78002B06D115
:102BE000894B0122DA708A4B01221A7002E0864B6F
:102BF0000022DA70874B1B8801339AB2854B1A800A
:102C0000884B93ED107A874BD3ED107A27EE277A15
:102C1000834BD3ED007A77EE277A814BC3ED007AB0
:102C2000804BD3ED107AB1EE677A7E4BD3ED0E7AFE
:102C300027EE277A7C4BD3ED007A77EE277A7A4B12
:102C4000C3ED007A704B1B78012B40F00F81754B60
:102C50009B6B764A9361734B1B8907EE903AF8EEB3
:102C6000677A734B0093734B734AF0EE670A7349AC
:102C70006E489FED690A07F0B7FB714B1B88013363
:102C80009AB26F4B1A806E4B1B8842F20F729342BE
:102C900040F2FE816A4B00221A80624B93ED0A7A61
:102CA0005E4BD3ED007AB4EEE77AF1EE10FA08DD70
:102CB0005C4B93ED0A7A594BD3ED007A77EE677A45
:102CC00007E0564B93ED007A564BD3ED0A7A77EE38
:102CD000677AC7ED057A4C4B5B78012B39D1514BA4
:102CE000D3ED0B7A9FED577A67EE877A9FED567A90
:102CF00067EE877AC7ED047A4A4BD3ED0B7A9FEDE6
:102D0000517A67EE877A9FED517A67EE877AC7ED41
:102D1000037A444BD3ED0F7A97ED037AB4EEE77A5A
:102D2000F1EE10FA05D5384A137943F00803137110
:102D30006DE23C4BD3ED0F7A97ED047AB4EEE77A6F
:102D4000F1EE10FA05DD304A137943F010031371E8
:102D50005DE2344B93ED0A7AD7ED056AC6EE877AC9
:102D60009FED3B7AF4EEC77AF1EE10FA05DD264AC4
:102D7000137943F0800313718AE12A4BD3ED0A7A69
:102D80009FED347AF4EEC77AF1EE10FA01D53222D3
:102D900000E03C22234B1A81224BD3ED0B7A9FEDAE
:102DA0002E7AF4EEC77AF1EE10FA08D51D4B5522B3
:102DB000A3F86C201B4B8222A3F86E2008E0194B6D
:102DC000AA22A3F86C20174B4FF48272A3F86E204E
:102DD000144B1B8907EE903AF8EEE77A9FED1F7AC5
:102DE00067EE877A77EEA77A1D48DFED1E0AB0EE10
:102DF000670AFEF789FD044B04221A701A4A5388A9
:102E000043F40073538043E1A809002000400F40C1
:102E10009C0B00209E0B002017B7D138A00B002080
:102E2000A40B002038090020A80B0020B0090020C6
:102E3000600900206409002044090020940100205A
:102E4000AC0B0020F4FDB43F3333333F6666A63F3E
:102E50000AD7A33C00005C4200002543DB0FC940B9
:102E6000400B0020DD7E3C43C0F10140A44B1B78A9
:102E7000042B40F00D81A34B9B6BA34A9361A14BA4
:102E80001B8907EE903AF8EE677AA04B0093A04BAF
:102E9000A04AF0EE670AA0499B489FEDA00A07F000
:102EA000A3FA9F4B1B8801339AB29D4B1A80954B16
:102EB000DB6B9C4AD3609B48FEF7D4FDF0EE407A72
:102EC000904BC3ED067A964B1B8841F287329342B2
:102ED00040F2DE808A4BDB78012B40F0D980884BB2
:102EE00002221A708E4B00221A80D1E0854BD3ED5E
:102EF000087A9FED8D7AF4EEC77AF1EE10FA60D57C
:102F00008A4B1B78012B6AD1894B93ED007A894B50
:102F10001B8807EE903AF8EEE77AC7EE276A16EEBE
:102F2000900A07F03FFE02460B4643EC102B07F0D9
:102F3000FDFE53EC102B1046194607F08BFE03469E
:102F4000704A13637C4B93ED007A7A4B1B8807EE33
:102F5000903AF8EEE77AC7EE276A16EE900A07F085
:102F600021FE02460B4643EC102B07F0DFFE53EC2C
:102F7000102B1046194607F06DFE0346614AD362D6
:102F80006E4BD3ED006A6B4B1B8807EE903AB8EEA0
:102F9000E77AC6EE877A5B4BC3ED0D7A644B4FF050
:102FA00000021A60654B4FF000021A60624B4FF04E
:102FB00000021A605F4B00221A805C4B00221A70DC
:102FC0000DE05A4B1B78002B06D14D4B0122DA70D5
:102FD000564B01221A7002E0494B0022DA70554B21
:102FE0001B8801339AB2534B1A80464B93ED107AEB
:102FF000444BD3ED107A27EE277A4D4BD3ED007A70
:1030000077EE277A4A4BC3ED007A3E4B93ED107A68
:103010003C4BD3ED0E7A27EE277A484BD3ED007A5E
:1030200077EE277A454BC3ED007A364B93ED0E7A57
:10303000344BD3ED0E7A27EE277A3F4BD3ED007A4F
:1030400077EE277A3C4BC3ED007A2D4B1B78012B92
:1030500008D12B4B04221A70394A538843F4007369
:10306000538015E0264B1B78042B11D12C4B1B8869
:1030700001339AB22A4B1A80294B1B8841F28732BE
:10308000934205D91E4B02221A70254B00221A804A
:103090002C4B1B78002B00F08180194BDB78002B28
:1030A00002D1294B01221A70154BDB78012B0AD172
:1030B000264B1B78002B06D0244B00221A70214B84
:1030C00000221A700AE00E4BDB78012B06D11E4B52
:1030D0001B78002B02D01D4B01221A701B4B1B7852
:1030E000002B39D0074B9A6D194B1B681344184AB3
:1030F0001360184B1B780133DAB2164B1A704DE08F
:10310000A809002038090020B0090020600900202B
:1031100064090020440900209401002017B7D13829
:10312000AC0B0020400B0020DB0F49409C0B002023
:10313000A40B00209E0B0020B00B0020A80B002049
:10314000C0F10140D5060020B40B0020B50B0020D3
:10315000B80B0020BC0B00202E4B1B7883F0010322
:10316000DBB2002B1AD02C4B1B682C4A1278B3FB15
:10317000F2F3A3F5FA632A4A1360294B1B687B2BF1
:1031800004DC274B1B6813F17B0F07DA254A5379C0
:1031900043F004035371224B00221A60224B1B6838
:1031A0000133214A1360214B1B6801331F4A13600E
:1031B0001F4B93F82230002B05D01D4B9B8C013305
:1031C0009AB21B4B9A841A4B93F82630002B11D0DD
:1031D000174B1B8D01339AB2154B1A85144B1B8D5F
:1031E000B3F57A7F06D3124B00221A85104B0122C9
:1031F00083F82A200F4B1B7883F00103DBB2002BEE
:1032000005D00D4B1B8801339AB20B4B1A8018372F
:10321000BD4680BDD5060020B80B0020BC0B0020A9
:10322000940B0020A80900208C0B0020900B00209C
:10323000B8080020D0010020740B002080B400AF3B
:103240002A4B1B78002B18D0032B2DD1284B1B6841
:1032500042F20F7293423ED9254B00221A60254B51
:103260005B88C3F34033DBB2224A83F00103D9B257
:10327000538861F34D3353802DE01D4B1B6844F69A
:103280001F62934229D91A4B00221A60194B5B889E
:10329000C3F34033DBB2174A83F00103D9B253883A
:1032A00061F34D33538018E0114B1B6847F22F52E6
:1032B000934214D90E4B00221A600E4B5B88C3F365
:1032C0004033DBB20B4A83F00103D9B2538861F378
:1032D0004D33538003E000BF02E000BF00E000BFB9
:1032E00000BFBD465DF8047B704700BFA809002001
:1032F0008C0B0020C0F1014080B400AF264B1B684E
:10330000092B43D9244B00221A60244B9B88C3F31A
:103310000033DBB2002B14D1214B1B8801339AB24E
:103320001F4B1A801E4B1B88C82B2FD91D4B1B7897
:10333000002B2BD01C4B10221A601A4B00221A7043
:1033400024E0164B9B88C3F34033DBB2002B14D12F
:10335000134B5B8801339AB2114B5A80104B5B8838
:10336000C82B13D90F4B1B78002B0FD00E4B2022EC
:103370001A600C4B00221A7008E0094B00221A80D8
:10338000074B00225A80074B01221A7000BFBD462E
:103390005DF8047B704700BF900B0020A0F1014056
:1033A000980B0020D4060020C80B002080B500AF89
:1033B000034B9B681B6803490348984700BF80BDC7
:1033C00098BD000078BD0000B40D002080B582B02B
:1033D00000AF4F494F4801F091FF4F4AD36A0D218A
:1033E00061F31343D3624D4AD36A0D2161F3134352
:1033F000D3624B4AD36A0D2161F31343D362464A29
:10340000484B1B685366454A464B1B685366444A03
:10341000444B1B685366404A424B1B6893663F4AC5
:10342000404B1B6893663E4A3E4B1B6893663A4A84
:103430003C4B1B68D366394A3A4B1B68D366384A03
:10344000384B1B68D366344A536B092161F304037C
:103450005363324A536B092161F304035363304AC7
:10346000536B092161F3040353632B4A536B062109
:1034700061F314435363294A536B062161F31443E8
:103480005363274A536B062161F314435363254B5F
:103490001B6801335B087B601F4A7B68D3641F4A4B
:1034A0007B68D3641E4A7B68D3641B4A7B68536580
:1034B0001A4A7B6853651A4A7B685365164A7B68CB
:1034C000D365164A7B68D365154A7B68D365164B6E
:1034D0001B68114A0133C2F88C30134B1B680F4A2A
:1034E0000133C2F88C30104B1B680D4A0133C2F80F
:1034F0008C30094A536B6FF308235363064A536BAE
:103500006FF31863536300BF0837BD4680BD00BF2B
:103510003CB90000A40C002000971640009816400B
:1035200000991640D8060020E006002080B582B041
:1035300000AF6449644801F0E1FE644AD36A0D219A
:1035400061F31343D362624AD36A0D2161F31343DB
:10355000D362604AD36A0D2161F31343D3625B4A9D
:103560005D4B1B6853665A4A5B4B1B685366594A4E
:10357000594B1B685366554A574B1B689366544A10
:10358000554B1B689366534A534B1B6893664F4ACF
:10359000514B1B68D3664E4A4F4B1B68D3664D4A4E
:1035A0004D4B1B68D366494A536B092161F30403F1
:1035B0005363474A536B092161F304035363454A3C
:1035C000536B092161F304035363404A536B062193
:1035D00061F3144353633E4A536B062161F3144372
:1035E00053633C4A536B062161F3144353633A4BD4
:1035F0001B6801335B087B60344A7B68D364344AC0
:103600007B68D364334A7B68D364304A7B685365F4
:103610002F4A7B6853652F4A7B6853652B4A7B682A
:10362000D3652B4A7B68D3652A4A7B68D3652B4BCD
:103630001B68264A0133C2F88C30284B1B68244A89
:103640000133C2F88C30254B1B68224A0133C2F883
:103650008C301E4A936B43F4803393631B4A936B05
:103660006FF351439363194A936B6FF392439363E0
:10367000164A936B6FF3D3439363144B01221A677B
:10368000124A536B6FF308235363104A536B6FF363
:10369000186353630E4A536B6FF3082353630C4A4A
:1036A000536B6FF3186353630A4A536B6FF308232A
:1036B0005363084A536B6FF31863536300BF0837B3
:1036C000BD4680BDD0BA0000200D002000941640F9
:1036D0000095164000961640DC060020E406002007
:1036E00080B500AF034B9B681B68034903489847AC
:1036F00000BF80BD64BD000050BD00009C0D0020D7
:1037000080B500AF284B9B681B682849284898471C
:10371000254B9B689B684FF4006125489847224BD6
:103720009B68DB6822489847224B9B681B682249AC
:10373000224898471F4B9B685B6820489847204B5E
:103740009B681B681F49204898471D4B9B689B68D6
:1037500000211D4898471A4B9B68DB681A48984718
:103760001A4B9B681B681A491A489847174B9B6865
:103770009B68002117489847144B9B68DB681548E5
:103780009847154B9B681B68144915489847124B7E
:103790009B689B680021124898470F4B9B68DB6829
:1037A0000F48984700BF80BD20BD000018BD000035
:1037B0007C0D002044BD00002CBD00008C0D0020BD
:1037C00014BB00000CBB00004C0D0020FCBA000034
:1037D000F4BA00003C0D002058B7000050B70000BC
:1037E000F40B002080B485B000AF2D4BD3F8083C1B
:1037F000FB602B4B0022C3F8082C00BF284BD3F8EA
:10380000803CC3F30003DBB2002BF7D100BF244B95
:10381000D3F8803CC3F34003DBB2002BF7D1204B3D
:103820000322C3F88C2C1E4B0322C3F8B42C1C4B70
:103830006FF06042C3F8B82C194B40F2E712C3F89E
:10384000C42C174B40F20332C3F8002C144BD3F8AE
:103850008C3C002B0ED1124BD3F8A03C002B09D18D
:103860000F4BD3F8A43C002B04D10D4BD3F8B03C44
:10387000002B01D0012300E00023BB60084AFB6855
:10388000C2F8083CBB68002B01D01B2300E00023DA
:103890007B607B6818461437BD465DF8047B704733
:1038A0000000174080B500AF134BDB681B6813495D
:1038B00013489847104BDB685B68124910489847DB
:1038C000FFF790FF0346104A13600F4B1B68002B55
:1038D00004D00D4B1B68002B00D000BE01214FF41B
:1038E0007A7006F045F8094B07225A64074B032209
:1038F000C3F8082C00BF80BD04BD0000ECBC000074
:103900005C0D0020C0BB0000C00B00200000174071
:1039100080B400AF044A93686FF31453936000BF00
:10392000BD465DF8047B70470040084080B483B01A
:1039300000AF87ED010A0B4A7B68536100E000BFCE
:10394000094B1B7803F00103002BF8D1054B5B6991
:1039500007EE903AB0EE670A0C37BD465DF8047B7F
:10396000704700BF001002400810024080B483B0CE
:1039700000AF87ED010A0B4A7B68536100E000BF8E
:10398000094B1B7803F00103002BF8D1054B1B6991
:1039900007EE903AB0EE670A0C37BD465DF8047B3F
:1039A000704700BF001002400810024080B500AF11
:1039B0000649074802F064FB43221321044802F041
:1039C000AFFB034802F0C4FB00BF80BDECB60000B3
:1039D000CC0B002080B500AF1E491F4800F0A0F9B5
:1039E0001E4B1A68937843F0100393701C4B5A686F
:1039F00013786FF386131370194B5A6813786FF3AB
:103A000045131370164B5A68137843F01003137064
:103A1000134B5A6893786FF305139370104B5B68E0
:103A200040225A700E4B5B680022DA700C4B5A68C9
:103A300093786FF300039370094B5B68194606484F
:103A400000F053FB05220749034800F0A9FA00BF24
:103A500080BD00BFA8B70000140C002080B7000094
:103A600094B70000E808002080B483B000AF78600D
:103A70007B68002B0DD07B681B79022B02D1084B91
:103A800001221A707B681B79012B02D1054B0122A0
:103A90001A7000BF0C37BD465DF8047B704700BF4D
:103AA000E8060020C40B002080B500AF164B40F2A2
:103AB0008D321A60154B40F28D321A60144B782209
:103AC0001A60144B18221A60FFF780FCFFF72EFDD6
:103AD000114A536B43F480535363104A536B43F4BE
:103AE00080535363FFF762FCFFF7FAFDFFF708FE10
:103AF000FFF7D8FEFFF70CFFFFF758FFFFF76AFF4D
:103B0000FCF79EFB00BF80BDD8060020DC0600202D
:103B1000E0060020E40600200094164000971640BE
:103B200080B500AF044B9B685B6804489847044B22
:103B300090225A6000BF80BD98BD0000B40D0020E7
:103B40000090164080B500AFFEF7A0FE0023184697
:103B500080BD80B483B000AFEFF303837B607B68EC
:103B60003B603B88C3F308039BB2DBB2103BDBB284
:103B70005BB218460C37BD465DF8047B7047FFFF0B
:103B800080B483B000AF03463960FB7197F907300A
:103B900004493A6841F8232000BF0C37BD465DF860
:103BA000047B7047240E002080B483B000AF03462E
:103BB000FB71084997F9073003F1C00251F8223030
:103BC0006FF3104341F8223000BF0C37BD465DF85B
:103BD000047B70470060004080B584B000AF0346AE
:103BE000FB7197F907301846FFF7DEFF97F90730AA
:103BF000FB60FB6803F01F02064997F907305B0979
:103C0000012000FA02F2603341F8232000BF103790
:103C1000BD4680BD00E100E080B584B000AF034642
:103C2000B9607A60FB73BB68DAB2094997F90F3063
:103C30001201D2B20B4483F8002397F90F30796850
:103C40001846FFF79DFF00BF1037BD4680BD00BF7F
:103C500000E100E080B485B000AF0346FB7197F946
:103C60000730FB60FB6803F01F02074997F9073034
:103C70005B09012000FA02F241F8232000BF14374B
:103C8000BD465DF8047B704700E100E080B582B07E
:103C900000AF0346FB7197F907301846FFF79CFF0A
:103CA00097F907301846FFF7D5FF00BF0837BD4624
:103CB00080BDFFFF80B485B000AF0346FB7197F96C
:103CC0000730FB60FB6803F01F020B4997F90730D0
:103CD0005B09012000FA02F2203341F82320BFF3F0
:103CE0004F8F00BFBFF36F8F00BF00BF1437BD46BB
:103CF0005DF8047B704700BF00E100E080B483B052
:103D000000AF0346FB7197F90730044A52F823309D
:103D100018460C37BD465DF8047B7047240E002022
:103D200080B58AB000AF786039607B687B623B68A1
:103D30001B7803F5800303F58C531B021A467B6A3C
:103D40001A627B6A00221A707B6A3A68DA613B6801
:103D50005A697B6A5A623B689A697B6ADA627B6A53
:103D600000229A623B68DB693B627A6A93780121A0
:103D700061F3010393703B685B78002B05D17A6A8D
:103D80009378022161F3010393703968786A00F037
:103D900032FB3968786A00F002FAF861FB69002B9F
:103DA00001D0FB6978E04FF48063BB6100237B6145
:103DB000EFF31083BB60BB687B610123FB60FB6892
:103DC00083F3108800BF364B5A683B681B7819464E
:103DD0004FF00043CB40DB43314913404B60304B45
:103DE0005B687B693B613B6983F3108800BF7B6A3A
:103DF0001B6ABA699A603968786A00F027FA7B6AA8
:103E00000022DA607B6A00221A617B6A00225A6112
:103E10007B6A00229A613B6A5A897B6A1A817B6AB3
:103E20001B6A204A9A66BB6943F00103BB617B6A47
:103E3000DB6993F905301846FFF728FF7B6ADB69D9
:103E400093F90B301846FFF721FFBB6943F4803329
:103E5000BB617B6ADB6993F907301846FFF716FFF1
:103E60007B6ADB6993F909301846FFF70FFFBB69DE
:103E700043F01003BB617B6A1B6ABA699A6000BF9A
:103E80007B6A1B6A1B7FC3F30003DBB2012BF7D1F4
:103E90007B6A054A5A60002318462837BD4680BD14
:103EA000004008401000079D4249435380B588B048
:103EB00000AF78607B68FB61FB695B68364A9342C0
:103EC00001D0072364E0FB691B6A9A68FB691B6ADF
:103ED00022F440129A60FB691B6A9A68FB691B6AAC
:103EE00022F010029A6000BFFB691B6A1B7FC3F3BC
:103EF0000013DBB2002BF7D1FB69DB6993F90730C4
:103F00001846FFF7D7FEFB69DB6993F909301846BD
:103F1000FFF7D0FEFB691B6A9A68FB691B6A22F4F3
:103F200080329A60FB69DB6993F905301846FFF728
:103F3000C1FEFB69DB6993F90B301846FFF7BAFE47
:103F4000F86900F085FA0023BB61EFF31083FB6092
:103F5000FB68BB6101233B613B6983F3108800BFB1
:103F60000E4B5A68FB69DB691B7819464FF000431A
:103F7000CB400A4913434B60084B5B68BB697B61CC
:103F80007B6983F3108800BFFB6900225A6000231D
:103F900018462037BD4680BD424943530040084083
:103FA00090B589B000AFF860B9607A60FB68BB611A
:103FB0000023FB61BB69DB69DB68002B1DD0BB699B
:103FC0009B78C3F30103DBB2013B7A6822FA03F367
:103FD0007B61BB69DB69DB689B689C68BB69DB69EB
:103FE000DB6818687B699BB2BA680021A047F8615A
:103FF000FB69002B01D0FB6906E0BB69BA685A6116
:10400000BB697A689A61FB6918462437BD4690BD42
:1040100090B589B000AFF860B9607A60FB68FB6169
:104020000023BB61FB691B6A9A68FB691B6A22F467
:1040300040129A6000BFFB691B6A9B6CC3F38073DC
:10404000DBB2012BF7D1FB691B6A9A68FB691B6A1B
:1040500022F010029A6000BFFB691B6A1B7FC3F34A
:104060000013DBB2002BF7D1FB697A681A61FB6998
:10407000BA68DA60FB69DB691B69002B28D0FB6931
:104080001B69002B24D0FB699B78C3F30103DBB2CF
:104090007B61FB691A697B69013B22FA03F33B618F
:1040A000FB6900221A61FB69DB691B699B689C68DC
:1040B000FB69DB691B691868FB69D9683B699BB2BE
:1040C0000022A047B861BB69002B01D0BB6908E0A2
:1040D000FB691B6A9A68FB691B6A42F010129A60BE
:1040E000002318462437BD4690BD80B485B000AF8C
:1040F000786039607B68FB60FB681B6A9B6823F40F
:104100004013BB60FB681A6ABB6823F4803323F05A
:1041100011039360FB680022DA60FB681B6A3A684F
:1041200012681A61FB681B6ABA689A600023184615
:104130001437BD465DF8047B704780B586B000AF8C
:10414000F860B9607A603B60BB685B681B687B6144
:104150007A69D3786FF30513D370FB68DB695B78FA
:10416000002B05D17A69D378012161F30513D3704F
:104170007B683A681A60BB689B681B68BA681068FD
:10418000BA6852681146984738613B69002B01D0E4
:104190003B6900E0002318461837BD4680BD80B556
:1041A00086B000AF7860396000237B613B68DB68D4
:1041B000002B17D03B68DB685B681B683B613B6981
:1041C0004FF400221A603B68D9683B691A1D7B686E
:1041D0001B6A7868FFF7B1FF78617B69002B01D01B
:1041E0007B692EE03B681B69002B29D03B681B696B
:1041F0005B681B68FB60FB684FF000621A603B68FD
:104200001969FB6803F108027B681B6A043378684C
:10421000FFF793FF78617B69002B0CD03B68DB686C
:10422000002B08D03B68DB689B681B6A3A68D26841
:104230001268104698477B69002B01D07B6900E02B
:104240007B6918461837BD4680BDFFFF80B489B032
:1042500000AF786039603B68DB697B617B695B68D4
:104260003B610023FB614FF48053FB603B685B784C
:104270001B0203F44073FA681343FB603B68DB786E
:104280009B0303F48043FA681343FB607B695B780C
:10429000DB039BB2FA681343FB607B695B7B5B05C6
:1042A00003F40013FA681343FB607B691B781B0659
:1042B00003F04073FA681343FB607B681B6AFA687B
:1042C0005A617B691B78022B03D07B691B78032B17
:1042D0000AD1384BFB617B691B78022B09D1FB6942
:1042E00043F02003FB6104E03B691B68FA69134358
:1042F000FB617B681B6AFA691A617B691B7B03F0AF
:104300000303BB61BB6943F03003BB613B689B782F
:10431000002B0BD03B689B78022B02D14FF48073AB
:1043200001E04FF44073BA691343BB617B699B782A
:104330001B0703F08053BA691343BB617B681B6A98
:10434000BA69DA607B681B6A00229A613B681B7855
:104350001A4640F21F23D34003F00103002B03D081
:104360007B681B6A144A5A627B699B7B03F00103DA
:10437000BB607B69DB7BC3F30403DBB21B0203F48A
:10438000F853BA681343BB607B691B7CC3F3040317
:10439000DBB21B0403F4F813BA681343BB607B68F9
:1043A0001B6ABA681A6300BF2437BD465DF8047BF8
:1043B000704700BF04FF00FF00001F1F80B582B0E0
:1043C00000AF78600B46FB701346BB7097F9023064
:1043D0001846FFF76FFC97F902301846FFF7E4FB29
:1043E000F97897F902307A681846FFF715FC00BF94
:1043F0000837BD4680BD80B582B000AF78603960B7
:104400003B68997A3B6893F90B301A467868FFF756
:10441000D5FF3B6819793B6893F905301A467868EF
:10442000FFF7CCFF3B6899793B6893F907301A4650
:104430007868FFF7C3FF3B68197A3B6893F9093046
:104440001A467868FFF7BAFF00BF0837BD4680BD3F
:1044500080B582B000AF78607B68DB69DB68002BD9
:104460000AD07B68DB69DB689B681B6A7A68D26963
:10447000D2681268104698477B68DB691B69002B7D
:104480000AD07B68DB691B699B681B6A7A68D26902
:10449000126912681046984700BF0837BD4680BDB4
:1044A00090B58BB000AFF860B9601346FB71FB6844
:1044B0009B6A7B627B6A002B03D107F114037B624A
:1044C00005E07B6A07F114040FCB84E80F00FB685A
:1044D000DB691B781A467B6A1A607B6ABA689A6045
:1044E0007B6AFA791A71FB68DA6A7B6ADA60FB68C0
:1044F0005B6A786A9847FB689B6A002B07D0FB6869
:104500009B6A1C4607F114030FCB84E80F0000BF21
:104510002C37BD4690BD80B584B000AFFFF719FBC6
:104520000346FB7397F90F301846FFF73DFB97F9E9
:104530000F301846FFF7E2FBB860BB68DB691B6908
:10454000002B2FD1BB681B69002B2BD0BB689B783D
:1045500003F00303DBB2022B0AD1BB68DB681B88C4
:104560001946BB681A6A49F2FF130B40536005E015
:10457000BB68DB681A78BB681B6A5A60BB681B693A
:10458000BA689278C2F30102D2B29A1ABB681A6171
:10459000BB68DB68BA689278C2F30102D2B21A44EF
:1045A000BB68DA60BB681B69002B1BD1BB681B6A48
:1045B0009B687B607B6843F400137B607B6823F41B
:1045C00080137B60BB681B6A7A689A60BB680022B4
:1045D000DA60BB685B6A002B04D080220021B868D7
:1045E000FFF75EFF00BF1037BD4680BD80B584B0C9
:1045F00000AFFFF7AEFA0346FB7397F90F3018468A
:10460000FFF7D2FA97F90F301846FFF777FBB8603B
:10461000BB68DB69DB68002B03D0BB689B69002BA0
:104620004FD1BB689B7803F00303DBB2022B06D1AA
:10463000BB681B6A1B68C3F308037B6004E0BB68AC
:104640001B6A1B68DBB27B60BB689B69002B0AD1CD
:10465000BB685B6A002B44D07B6804221946B868AB
:10466000FFF71EFF3DE0BB685869BB689B78C3F34A
:104670000103DBB21A463B1D194606F041FBBB683D
:104680005B69BA689278C2F30102D2B21A44BB687D
:104690005A61BB689B69BA689278C2F30102D2B2D0
:1046A0009A1ABB689A61BB689B69002B19D1BB68D9
:1046B0005B6A002B15D001220021B868FFF7F0FEDD
:1046C0000FE0BB6800229A61BB6800225A61BB6898
:1046D0005B6A002B06D001220021B868FFF7E0FEDC
:1046E00000E000BF00BF1037BD4680BD80B582B07E
:1046F00000AFFFF72EFA0346FB7197F90730184613
:10470000FFF7FCFA38603B681B6A9B683A68126ADC
:1047100023F4401323F0100393603B685B6A002B83
:1047200004D0022200213868FFF7BAFE97F907305B
:104730001846FFF739FA00BF0837BD4680BD80B57F
:1047400084B000AFFFF705FA0346BB7297F90A3051
:104750001846FFF7D3FA78600023FB607B689B78EC
:1047600003F00303DBB2022B06D17B681B6A1B68D4
:10477000C3F30803FB6004E07B681B6A1B68DBB2C1
:10478000FB607B681B6A9B6C3B603B68DB0C5BB22D
:1047900003F020035AB23B681B0E5BB203F0100318
:1047A0005BB213435AB23B681B0E5BB203F00803C3
:1047B0005BB213435BB2FB72FB7A03F01003002B76
:1047C0000BD07B681B6A9B6CC3F3C033DBB2002B3E
:1047D00003D1FB7A43F04003FB727B681B6A9A6E3D
:1047E0007B681B6A42F0C8529A667B685B6A002B42
:1047F00005D0FB7A1A46F9687868FFF751FE97F9F9
:104800000A301846FFF7D0F900BF1037BD4680BD0B
:1048100080B483B000AFEFF303837B607B683B60C1
:104820003B88C3F308039BB2DBB2103BDBB25BB245
:1048300018460C37BD465DF8047B704780B483B0E2
:1048400000AF03463960FB7197F9073004493A68B5
:1048500041F8232000BF0C37BD465DF8047B70474C
:10486000240E002080B483B000AF0346FB710849DA
:1048700097F9073003F1C00251F822306FF310436B
:1048800041F8223000BF0C37BD465DF8047B70470D
:104890000060004080B584B000AF0346FB7197F91B
:1048A00007301846FFF7DEFF97F90730FB60FB681B
:1048B00003F01F02064997F907305B09012000FA4F
:1048C00002F2603341F8232000BF1037BD4680BD9F
:1048D00000E100E080B584B000AF0346B9607A60C3
:1048E000FB73BB68DAB2094997F90F301201D2B2F3
:1048F0000B4483F8002397F90F3079681846FFF7C7
:104900009DFF00BF1037BD4680BD00BF00E100E045
:1049100080B485B000AF0346FB7197F90730FB60A8
:10492000FB6803F01F02074997F907305B09012074
:1049300000FA02F241F8232000BF1437BD465DF8AB
:10494000047B704700E100E080B582B000AF034611
:10495000FB7197F907301846FFF79CFF97F907306E
:104960001846FFF7D5FF00BF0837BD4680BDFFFFE3
:1049700080B485B000AF0346FB7197F90730FB6048
:10498000FB6803F01F020B4997F907305B09012010
:1049900000FA02F2203341F82320BFF34F8F00BF0B
:1049A000BFF36F8F00BF00BF1437BD465DF8047BB7
:1049B000704700BF00E100E080B584B000AF03465F
:1049C000B9607A60FB7397F90F307A68B968184656
:1049D000FFF780FF97F90F301846FFF7B5FF00BFCC
:1049E0001037BD4680BDFFFF80B483B000AF0346E3
:1049F000FB7197F90730044A52F8233018460C37F8
:104A0000BD465DF8047B7047240E002080B588B059
:104A100000AF786039607B68FB613B68DB6803F559
:104A2000800303F50A631B02BB61BA69FB699A60E4
:104A3000FB693A685A6000237B61EFF31083BB6027
:104A4000BB687B610123FB60FB6883F3108800BFB8
:104A5000224BDA683B68DB68C3F10E03012101FADF
:104A600003F3DB431D491340CB601C4BDB687B69C0
:104A70003B613B6983F3108800BF3B681B881A01C8
:104A80003B689B781B0742EA03013B68DB785A07C7
:104A9000FB699B680A431A603B685A68FB69DA60E5
:104AA0003B689A68FB695A61FB6900221A61FB69DD
:104AB0000B4A1A603B6893F91030002B08DB3B6807
:104AC00093F910003B685B7CFA691946FFF774FFA5
:104AD000002318462037BD4680BD00BF0040084077
:104AE0005450470080B485B000AF78607B68FB60AD
:104AF000FB689A68136843F00803136000231846A4
:104B00001437BD465DF8047B704780B485B000AFB4
:104B100078607B68FB60FB689B681B68FA6892683A
:104B200023F4803323F00F03136000231846143757
:104B3000BD465DF8047B704780B485B000AF7860F7
:104B400039607B68FB60FB689B681A68054B134003
:104B50003A681360002318461437BD465DF8047B9D
:104B6000704700BF0F00010080B487B000AFF8604D
:104B7000B9607A603B60FB687B617B69BA68DA6028
:104B80007B697A685A617B693A681A610023184622
:104B90001C37BD465DF8047B704780B584B000AF1C
:104BA00078607B68FB60FB685B6893F91030002BD2
:104BB0000EDBFB685B6893F910301846FFF7D8FEF0
:104BC000FB685B6893F9103000211846FFF736FE4A
:104BD000FB6800221A60002318461037BD4680BDCE
:104BE00080B584B000AFFFF713FE0346FB7297F960
:104BF0000B301846FFF7F8FE78607B681B69FB6096
:104C0000FB68002B02D13B46FB6002E0FB681B689F
:104C10003B607B685A69FB681A607B68DB68F868F0
:104C200098477B681B69002B03D07B681B693A6837
:104C30001A6097F90B301846FFF714FE00BF1037C3
:104C4000BD4680BD80B483B000AFEFF303837B60CB
:104C50007B683B603B88C3F308039BB2DBB2103B2D
:104C6000DBB25BB218460C37BD465DF8047B70477B
:104C700080B483B000AF0346FB71084997F9073051
:104C800003F1C00251F822306FF3104341F8223093
:104C900000BF0C37BD465DF8047B704700600040E4
:104CA00080B483B000AF0346FB7197F90730044A24
:104CB00052F8233018460C37BD465DF8047B704728
:104CC000240E002080B586B000AFFFF7BBFF03467F
:104CD000FB7597F917301846FFF7E2FF38610E4B66
:104CE0001B79FB7397F917301846FFF7C1FF0A4A83
:104CF000FB7BDB43DBB213713B695B68DB687B608A
:104D0000FB7BBB603B695B689B683A1D104698471C
:104D100000BF1837BD4680BD0050084080B483B046
:104D200000AF0346FB800A49FB881B0A9BB21A4668
:104D3000FB88DBB21201134451F82330C3F3400364
:104D4000DBB218460C37BD465DF8047B704700BFE8
:104D500000F8014080B485B000AF0023FB60EFF3A2
:104D600010837B607B68FB600123BB60BB6883F3BF
:104D7000108800BF0D4B1B68002B05D10C4B002287
:104D80001A730B4B40221A73084B1B680133074AF6
:104D90001360FB683B603B6883F3108800BF00BF73
:104DA0001437BD465DF8047B704700BF200E00201D
:104DB00000FD014080B485B000AF0023FB60EFF33D
:104DC00010837B607B68FB600123BB60BB6883F35F
:104DD000108800BF0F4B1B68002B04D00D4B1B68C5
:104DE000013B0C4A13600B4B1B68002B05D10A4B8F
:104DF00000221A73084B80221A73FB683B603B68E1
:104E000083F3108800BF00BF1437BD465DF8047BF4
:104E1000704700BF200E002000FD014080B584B027
:104E200000AF786039607B68FB60FB68044A1A60F9
:104E3000386800F0BBF9002318461037BD4680BD26
:104E400054524F5080B485B000AF78607B68FB60EF
:104E5000FB6800221A60002318461437BD465DF82F
:104E6000047B704780B582B000AF786039603868E5
:104E700000F09CF9002318460837BD4680BD80B578
:104E800084B000AFF8600B467A607B81FFF762FF69
:104E90007B897968184600F0F5F9FFF78BFF00234E
:104EA00018461037BD4680BD80B584B000AFF860AD
:104EB0000B467A607B817B891846FFF72FFF0346FC
:104EC000DAB27B681A70002318461037BD4680BDE1
:104ED00080B487B000AFF8600B467A607B817B8935
:104EE0001B0A9BB2DBB25B0103F1804303F5F8338D
:104EF0007B617B695B689AB27B681A8000231846E5
:104F00001C37BD465DF8047B704780B487B000AFA6
:104F1000F860084611461A4603467B810B463B81E2
:104F20001346FB803A89FB881340FB82B7F90830AF
:104F3000DB431AB2B7F9063013401BB2BB827B8940
:104F40001B0A9BB2DBB25B0103F1804303F5F8332C
:104F50003B61BB8A1A04FB8A1A433B699A600023AF
:104F600018461C37BD465DF8047B704780B487B097
:104F700000AF78600B467B8013467B700023FB827A
:104F80000023BB827B8823F0FF037B827B88DBB21C
:104F90003B823B8A012202FA03F3FB817B78002BE0
:104FA00002D1FB89BB8201E0FB89FB827B8A1B0A61
:104FB0009BB2DBB25B0103F1804303F5F833BB60C6
:104FC000BB8A1A04FB8A1A43BB689A6000231846FE
:104FD0001C37BD465DF8047B704780B48BB000AFD2
:104FE000F860084611461A4603467B810B463B8112
:104FF0001346FB807B891B0A9BB2DBB25B0103F18A
:10500000804303F5F8337B627B6A1B683B623A8915
:10501000FB8813409BB2FB613B89DA43FB8813405A
:10502000BB613B6A7B617A69FB6913437B61BB6946
:10503000DB437A6913407B617B6A7A691A600023DB
:1050400018462C37BD465DF8047B704780B487B0A6
:1050500000AFF8600B467A607B817B891B0A9BB2AC
:10506000DBB25B0103F1804303F5F8337B617B69BD
:105070005B68C3F30F439AB27B681A80002318461B
:105080001C37BD465DF8047B704780B487B000AF25
:10509000F8600B467A607B817B891B0A9BB2DBB28E
:1050A0005B0103F1804303F5F8337B617B695B6847
:1050B000C3F30F437B827B89DBB2012202FA03F345
:1050C0003B827A8A3B8A13409BB23A8A9A4203D146
:1050D0007B6801221A7002E07B6800221A700023AC
:1050E00018461C37BD465DF8047B704780B487B016
:1050F00000AFF860084611461A4603467B810B460E
:105100003B811346FB803A89FB881340FB82B7F949
:105110000830DB431AB2B7F9063013401BB2BB822A
:105120007B891B0A9BB2DBB25B0103F1804303F571
:10513000F8333B61BB8A1A04FB8A1A433B69DA6085
:10514000002318461C37BD465DF8047B704780B5C8
:1051500084B000AF78600B467B8013467B707B8801
:105160007B817B8923F0FF037B817B893B8100234B
:10517000FB810023BB817B78012B06D17B88DBB2CE
:10518000012202FA03F3FB8105E07B88DBB20122F6
:1051900002FA03F3BB817B78BA89F989388900F078
:1051A0002DF8002318461037BD4680BD80B584B069
:1051B00000AF78607B68BB60FFF7CCFD0023FB810C
:1051C00011E0BB685A68FB89DB0013449888BB6810
:1051D0005A68FB89DB0013441B68194600F052F83B
:1051E000FB890133FB81BB681B88FA899A42E8D3AB
:1051F000FFF7E0FD00BF1037BD4680BD90B484B01E
:1052000000AF0446084611461A462346FB80034673
:10521000BB800B467B8013467B700023FB60FB88C2
:105220001B0A9BB2DBB25B0103F1804303F5F83349
:10523000BB60BB68DB68FB607B78012B0DD1BB8852
:10524000FA681343FB607B881B046FEA13436FEA21
:105250000343FA681340FB600CE07B881B04FA6888
:105260001343FB60BB886FEA03436FEA1343FA689A
:105270001340FB60BB68FA68DA6000BF1037BD46B8
:1052800090BC704780B483B000AF03463960FB80A8
:105290003B6803F48033002B1CD01749FB881B0AA2
:1052A0009BB21A46FB88DBB212011A4451F8223035
:1052B0006FF3104341F822300F48FB881B0A9BB262
:1052C0001946FB88DBB23A6822F4803209010B44AC
:1052D00040F823200849FB881B0A9BB21A46FB882A
:1052E000DBB2120113443A6841F8232000BF0C37A7
:1052F000BD465DF8047B704700F8014080B586B07C
:1053000000AF786039607B683B610023FB7530E05B
:10531000FB7D3A689B0013445B681868FB7D3A6824
:105320009B0013445B685B68194600F037F9F8602E
:10533000FB7D3A689B0013445B681A68FB7D9268AA
:1053400039699B000B445A603B681B78022B0DD1D6
:10535000FB7D3A699B0013445B681A6CFB7D3969DD
:105360009B000B445B6842F420221A64FB7D0133EE
:10537000FB75FB7D022BCBD93B685A693B691A61EF
:105380003B681A783B691A753B693A689A613B69D0
:10539000034A1A60002318461837BD4680BD00BF77
:1053A0003354504780B487B000AF0346FB710E4BB7
:1053B0001B6A7B617B691B0E03F007033B61FB7972
:1053C0007A6922FA03F303F00703FB60074B1A68BC
:1053D0003B699A40FB6822FA03F318461C37BD4626
:1053E0005DF8047B704700BF00E00140AC0F002077
:1053F00080B483B000AF03463960FB7197F9073082
:1054000004493A6841F8232000BF0C37BD465DF8D7
:10541000047B7047240E002080B483B000AF0346A5
:10542000FB71084997F9073003F1C00251F82230A7
:105430006FF3104341F8223000BF0C37BD465DF8D2
:10544000047B70470060004080B584B000AF034625
:10545000FB7197F907301846FFF7DEFF97F9073021
:10546000FB60FB6803F01F02064997F907305B09F0
:10547000012000FA02F2603341F8232000BF103708
:10548000BD4680BD00E100E080B584B000AF0346BA
:10549000B9607A60FB73BB68DAB2094997F90F30DB
:1054A0001201D2B20B4483F8002397F90F307968C8
:1054B0001846FFF79DFF00BF1037BD4680BD00BFF7
:1054C00000E100E080B485B000AF0346FB7197F9BE
:1054D0000730FB60FB6803F01F02074997F90730AC
:1054E0005B09012000FA02F241F8232000BF1437C3
:1054F000BD465DF8047B704700E100E080B582B0F6
:1055000000AF0346FB7197F907301846FFF79CFF81
:1055100097F907301846FFF7D5FF00BF0837BD469B
:1055200080BDFFFF80B485B000AF0346FB7197F9E3
:105530000730FB60FB6803F01F020B4997F9073047
:105540005B09012000FA02F2203341F82320BFF367
:105550004F8F00BFBFF36F8F00BF00BF1437BD4632
:105560005DF8047B704700BF00E100E080B584B0C7
:1055700000AF0346B9607A60FB7397F90F307A6821
:10558000B9681846FFF780FF97F90F301846FFF704
:10559000B5FF00BF1037BD4680BDFFFF80B584B0AA
:1055A00000AF786039607B68FB603B681B7C1A4603
:1055B000012303FA02F2FB68DA603968F86800F048
:1055C00039FA3968F86800F067FAFB68034A1A602C
:1055D000002318461037BD4680BD00BF5450470019
:1055E00080B485B000AF78607B68FB60FB689B6827
:1055F000FA68D2689A60002318461437BD465DF8F1
:10560000047B704780B485B000AF78607B68FB6036
:10561000FB689B68FA68D2685A6000231846143702
:10562000BD465DF8047B704780B485B000AF7860FC
:105630007B68FB60FB689B68FA68D268DA600023CD
:1056400018461437BD465DF8047B704780B588B0B6
:1056500000AF78607B68FB61FB695B68DB69BB61FD
:105660004FF000437B614FF000433B614FF000433C
:10567000FB60BB695B687A6913437B61BB699B68AC
:105680003A6913433B61BB69DB68FA681343FB600B
:10569000F86900F0C4F9B860FB699B683A695A611F
:1056A000FB699B68FA689A61FB699B687A691A6171
:1056B000FB699B68BA6912695A62FB699B68BA699F
:1056C00052699A62BB6843F425431946F86900F0B1
:1056D0009BF9002318462037BD4680BD80B584B0B5
:1056E00000AF78607B68FB60F86800F098F9B860FC
:1056F000F86800F0ADFBBB6843F425431946F86831
:1057000000F082F9002318461037BD4680BD80B5F1
:1057100086B000AF786039607B683B61386900F023
:105720007EF9F8603B68013B7B613B695B681B78F5
:10573000032B01D93B687B613B699B687A699A6658
:105740003B695B681B78002B0BD13B685B08013B16
:10575000BB603B699B68BA685A653B699B68BA68DD
:105760009A653B699B68DB6AC3F30003DBB2002BDD
:105770000DD13B699B687A695A663B699B684FF417
:10578000AA021A643B699B683A69D268DA60FB68CE
:1057900043F425431946386900F036F900231846CA
:1057A0001837BD4680BD80B58CB000AFF860B960D9
:1057B0007A607B6803F003037B62FB683B624FF017
:1057C000FF337B610023BB6107F114027B68B9687A
:1057D000386A00F08CFB386A00F021F9F8613B6A06
:1057E0009B681B6BFB62BB69002B29D10223BB6248
:1057F0007B6803F00803002B01D00423BB627B68A5
:1058000003F00203002B11D03B6A99687A69BB6AE6
:1058100012339B000B445A603B6A9968BB6A0133A0
:105820007A6912339B000B445A6009E03B6A99681D
:105830007A6ABB6A13447A6912339B000B445A603C
:105840007B6803F04003002B07D03B6A9B681A6C0F
:105850003B6A9B6842F480021A647B6A012B08D081
:10586000FB6A23F44033FB62BB691B04FA6A1343EF
:10587000FB627B68022B09D1BB69002B06D007F1C4
:1058800014020123B968386A00F031FB7B6A002BEF
:1058900008D0FB6A23F04073FB62BB691B06FA6AFF
:1058A0001343FB623B6A9B68FA6A1A63FB6943F421
:1058B00025431946386A00F0A7F800231846303708
:1058C000BD4680BD80B586B000AF786039607B682A
:1058D0003B613B699B685B6EFB60FB6801337B61EE
:1058E0003B695B681B78032B01D9FB687B613B68D4
:1058F0007A699A60386900F079FB02463B685A6021
:105900003B6801221A70002318461837BD4680BD37
:1059100080B485B000AF786039607B68FB60FB685D
:105920009B68DB6AC3F30003DBB21A463B681A715B
:10593000FB689B689A6C3B681A6000231846143712
:10594000BD465DF8047B704780B487B000AFF86057
:10595000B9607A603B60FB687B617B69BA685A61B9
:105960007B697A68DA617B693A689A610023184634
:105970001C37BD465DF8047B704780B588B000AF2A
:1059800078607B68FB610023BB61FB695B68DB6956
:105990007B61FB695B6893F91230184600F079FA75
:1059A0007B6993F92430184600F073FA7B6993F908
:1059B0002530184600F06DFA7B699B6A3B613B69B4
:1059C000002B05D03B6993F90130184600F061FACD
:1059D000FB6900221A60F86900F021F8F860FB69A1
:1059E0009B68FA69D2689A60FB699B6800225A63D7
:1059F000FB6843F425431946F86900F005F8BB69D4
:105A000018462037BD4680BD80B483B000AF7860B3
:105A1000396000BF0C37BD465DF8047B704780B429
:105A200083B000AF7860002318460C37BD465DF8A0
:105A3000047B704780B485B000AF786039607B68C4
:105A40003A685A607B6801221A747B68DB68C3F38A
:105A50000903002B02D07B6800221A743B681B7C70
:105A60001A460C4B13441B02FB60FA687B689A6071
:105A70003B685A697B685A613B689A697B68DA615E
:105A80007B6800229A6100BF1437BD465DF8047B35
:105A9000704700BF9016400080B598B000AF7860A6
:105AA00039603B68DB693B658A4B01221A60002341
:105AB000FB64EFF310833B623B6AFB6401237B6270
:105AC0007B6A83F3108800BF834B1B69824A23F0F3
:105AD00000431361804B1B69FB6CBB62BB6A83F3A1
